{
  "contractName": "Authentication",
  "abi": [
    {
      "constant": false,
      "inputs": [],
      "name": "destroy",
      "outputs": [],
      "payable": false,
      "stateMutability": "nonpayable",
      "type": "function"
    },
    {
      "constant": true,
      "inputs": [],
      "name": "owner",
      "outputs": [
        {
          "name": "",
          "type": "address"
        }
      ],
      "payable": false,
      "stateMutability": "view",
      "type": "function"
    },
    {
      "constant": false,
      "inputs": [
        {
          "name": "newOwner",
          "type": "address"
        }
      ],
      "name": "transferOwnership",
      "outputs": [],
      "payable": false,
      "stateMutability": "nonpayable",
      "type": "function"
    },
    {
      "constant": false,
      "inputs": [
        {
          "name": "_recipient",
          "type": "address"
        }
      ],
      "name": "destroyAndSend",
      "outputs": [],
      "payable": false,
      "stateMutability": "nonpayable",
      "type": "function"
    },
    {
      "anonymous": false,
      "inputs": [
        {
          "indexed": true,
          "name": "_userAddress",
          "type": "address"
        },
        {
          "indexed": false,
          "name": "_firstName",
          "type": "bytes32"
        },
        {
          "indexed": false,
          "name": "_lastName",
          "type": "bytes32"
        },
        {
          "indexed": true,
          "name": "_email",
          "type": "bytes32"
        }
      ],
      "name": "SignedUp",
      "type": "event"
    },
    {
      "anonymous": false,
      "inputs": [
        {
          "indexed": true,
          "name": "_userAddress",
          "type": "address"
        },
        {
          "indexed": false,
          "name": "_firstName",
          "type": "bytes32"
        },
        {
          "indexed": false,
          "name": "_lastName",
          "type": "bytes32"
        },
        {
          "indexed": true,
          "name": "_email",
          "type": "bytes32"
        }
      ],
      "name": "Updated",
      "type": "event"
    },
    {
      "constant": true,
      "inputs": [],
      "name": "login",
      "outputs": [
        {
          "name": "",
          "type": "bytes32"
        },
        {
          "name": "",
          "type": "bytes32"
        },
        {
          "name": "",
          "type": "bytes32"
        }
      ],
      "payable": false,
      "stateMutability": "view",
      "type": "function"
    },
    {
      "constant": false,
      "inputs": [
        {
          "name": "firstName",
          "type": "bytes32"
        },
        {
          "name": "lastName",
          "type": "bytes32"
        },
        {
          "name": "email",
          "type": "bytes32"
        }
      ],
      "name": "signup",
      "outputs": [
        {
          "name": "",
          "type": "bytes32"
        },
        {
          "name": "",
          "type": "bytes32"
        },
        {
          "name": "",
          "type": "bytes32"
        }
      ],
      "payable": true,
      "stateMutability": "payable",
      "type": "function"
    },
    {
      "constant": false,
      "inputs": [
        {
          "name": "firstName",
          "type": "bytes32"
        },
        {
          "name": "lastName",
          "type": "bytes32"
        },
        {
          "name": "email",
          "type": "bytes32"
        }
      ],
      "name": "update",
      "outputs": [
        {
          "name": "",
          "type": "bytes32"
        },
        {
          "name": "",
          "type": "bytes32"
        },
        {
          "name": "",
          "type": "bytes32"
        }
      ],
      "payable": true,
      "stateMutability": "payable",
      "type": "function"
    }
  ],
  "bytecode": "0x6060604052336000806101000a81548173ffffffffffffffffffffffffffffffffffffffff021916908373ffffffffffffffffffffffffffffffffffffffff160217905550610ce3806100536000396000f300606060405260043610610083576000357c0100000000000000000000000000000000000000000000000000000000900463ffffffff1680631a2dc6341461008857806383197ef0146100f85780638da5cb5b1461010d5780639c0d252514610162578063b34e97e8146101d2578063f2fde38b14610221578063f5074f411461025a575b600080fd5b6100bc6004808035600019169060200190919080356000191690602001909190803560001916906020019091905050610293565b60405180846000191660001916815260200183600019166000191681526020018260001916600019168152602001935050505060405180910390f35b341561010357600080fd5b61010b610531565b005b341561011857600080fd5b6101206105c6565b604051808273ffffffffffffffffffffffffffffffffffffffff1673ffffffffffffffffffffffffffffffffffffffff16815260200191505060405180910390f35b61019660048080356000191690602001909190803560001916906020019091908035600019169060200190919050506105eb565b60405180846000191660001916815260200183600019166000191681526020018260001916600019168152602001935050505060405180910390f35b34156101dd57600080fd5b6101e5610991565b60405180846000191660001916815260200183600019166000191681526020018260001916600019168152602001935050505060405180910390f35b341561022c57600080fd5b610258600480803573ffffffffffffffffffffffffffffffffffffffff16906020019091905050610b6e565b005b341561026557600080fd5b610291600480803573ffffffffffffffffffffffffffffffffffffffff16906020019091905050610c43565b005b60008060008560006001028160001916141515156102b057600080fd5b8560006001028160001916141515156102c857600080fd5b8560006001028160001916141515156102e057600080fd5b6000600102600160003373ffffffffffffffffffffffffffffffffffffffff1673ffffffffffffffffffffffffffffffffffffffff1681526020019081526020016000206000015460001916141561037e5788600160003373ffffffffffffffffffffffffffffffffffffffff1673ffffffffffffffffffffffffffffffffffffffff16815260200190815260200160002060000181600019169055505b6000600102600160003373ffffffffffffffffffffffffffffffffffffffff1673ffffffffffffffffffffffffffffffffffffffff1681526020019081526020016000206001015460001916141561041c5787600160003373ffffffffffffffffffffffffffffffffffffffff1673ffffffffffffffffffffffffffffffffffffffff16815260200190815260200160002060010181600019169055505b6000600102600160003373ffffffffffffffffffffffffffffffffffffffff1673ffffffffffffffffffffffffffffffffffffffff168152602001908152602001600020600201546000191614156104ba5786600160003373ffffffffffffffffffffffffffffffffffffffff1673ffffffffffffffffffffffffffffffffffffffff16815260200190815260200160002060020181600019169055505b86600019163373ffffffffffffffffffffffffffffffffffffffff167f43b85add1b26d595d269b3b3500e49383cdcc47fdda5c8584d6c601c5dc0ab5b8b8b60405180836000191660001916815260200182600019166000191681526020019250505060405180910390a350505093509350939050565b6000809054906101000a900473ffffffffffffffffffffffffffffffffffffffff1673ffffffffffffffffffffffffffffffffffffffff163373ffffffffffffffffffffffffffffffffffffffff1614151561058c57600080fd5b6000809054906101000a900473ffffffffffffffffffffffffffffffffffffffff1673ffffffffffffffffffffffffffffffffffffffff16ff5b6000809054906101000a900473ffffffffffffffffffffffffffffffffffffffff1681565b600080600085600060010281600019161415151561060857600080fd5b85600060010281600019161415151561062057600080fd5b85600060010281600019161415151561063857600080fd5b6000600102600160003373ffffffffffffffffffffffffffffffffffffffff1673ffffffffffffffffffffffffffffffffffffffff1681526020019081526020016000206000015460001916141580156106dc57506000600102600160003373ffffffffffffffffffffffffffffffffffffffff1673ffffffffffffffffffffffffffffffffffffffff168152602001908152602001600020600101546000191614155b801561073257506000600102600160003373ffffffffffffffffffffffffffffffffffffffff1673ffffffffffffffffffffffffffffffffffffffff168152602001908152602001600020600201546000191614155b151561073d57600080fd5b6000600102600160003373ffffffffffffffffffffffffffffffffffffffff1673ffffffffffffffffffffffffffffffffffffffff16815260200190815260200160002060000154600019161415156107dc5788600160003373ffffffffffffffffffffffffffffffffffffffff1673ffffffffffffffffffffffffffffffffffffffff16815260200190815260200160002060000181600019169055505b6000600102600160003373ffffffffffffffffffffffffffffffffffffffff1673ffffffffffffffffffffffffffffffffffffffff168152602001908152602001600020600101546000191614151561087b5787600160003373ffffffffffffffffffffffffffffffffffffffff1673ffffffffffffffffffffffffffffffffffffffff16815260200190815260200160002060010181600019169055505b6000600102600160003373ffffffffffffffffffffffffffffffffffffffff1673ffffffffffffffffffffffffffffffffffffffff168152602001908152602001600020600201546000191614151561091a5786600160003373ffffffffffffffffffffffffffffffffffffffff1673ffffffffffffffffffffffffffffffffffffffff16815260200190815260200160002060020181600019169055505b86600019163373ffffffffffffffffffffffffffffffffffffffff167ff30000b0c45b2f041d5fbfa2021f30a3799312d9a346b182802b0ef9ee4878838b8b60405180836000191660001916815260200182600019166000191681526020019250505060405180910390a350505093509350939050565b600080600080600102600160003373ffffffffffffffffffffffffffffffffffffffff1673ffffffffffffffffffffffffffffffffffffffff168152602001908152602001600020600001546000191614158015610a3957506000600102600160003373ffffffffffffffffffffffffffffffffffffffff1673ffffffffffffffffffffffffffffffffffffffff168152602001908152602001600020600101546000191614155b8015610a8f57506000600102600160003373ffffffffffffffffffffffffffffffffffffffff1673ffffffffffffffffffffffffffffffffffffffff168152602001908152602001600020600201546000191614155b1515610a9a57600080fd5b600160003373ffffffffffffffffffffffffffffffffffffffff1673ffffffffffffffffffffffffffffffffffffffff16815260200190815260200160002060000154600160003373ffffffffffffffffffffffffffffffffffffffff1673ffffffffffffffffffffffffffffffffffffffff16815260200190815260200160002060010154600160003373ffffffffffffffffffffffffffffffffffffffff1673ffffffffffffffffffffffffffffffffffffffff16815260200190815260200160002060020154925092509250909192565b6000809054906101000a900473ffffffffffffffffffffffffffffffffffffffff1673ffffffffffffffffffffffffffffffffffffffff163373ffffffffffffffffffffffffffffffffffffffff16141515610bc957600080fd5b600073ffffffffffffffffffffffffffffffffffffffff168173ffffffffffffffffffffffffffffffffffffffff16141515610c4057806000806101000a81548173ffffffffffffffffffffffffffffffffffffffff021916908373ffffffffffffffffffffffffffffffffffffffff1602179055505b50565b6000809054906101000a900473ffffffffffffffffffffffffffffffffffffffff1673ffffffffffffffffffffffffffffffffffffffff163373ffffffffffffffffffffffffffffffffffffffff16141515610c9e57600080fd5b8073ffffffffffffffffffffffffffffffffffffffff16ff00a165627a7a72305820dfc98d27931337ca28a0061a6e9c58744ffe5f4e1854ab2dda9aff9de82acc070029",
  "source": "pragma solidity 0.4.19;\n\nimport './zeppelin/lifecycle/Destructible.sol';\n\ncontract Authentication is Destructible {\n  struct User {\n    bytes32 firstName;\n    bytes32 lastName;\n    bytes32 email;\n  }\n\n  event SignedUp(address indexed _userAddress, bytes32 _firstName, bytes32 _lastName, bytes32 indexed _email);\n  event Updated(address indexed _userAddress, bytes32 _firstName, bytes32 _lastName, bytes32 indexed _email);\n  mapping (address => User) private users;\n  address[] usersArray;\n\n  uint private id; // Stores user id temporarily\n\n  modifier onlyExistingUser {\n    // Check if user exists or terminate\n\n    require(!(users[msg.sender].firstName == 0x0) && !(users[msg.sender].lastName == 0x0) && !(users[msg.sender].email == 0x0));\n    _;\n  }\n\n  modifier onlyValidEmail(bytes32 email) {\n    // Only valid emails allowed\n\n    require(!(email == 0x0));\n    _;\n  }\n\n  modifier onlyValidFirstName(bytes32 name) {\n    // Only valid names allowed\n\n    require(!(name == 0x0));\n    _;\n  }\n\n  modifier onlyValidLastName(bytes32 name) {\n    // Only valid names allowed\n\n    require(!(name == 0x0));\n    _;\n  }\n\n  function login()\n    external\n    view\n    onlyExistingUser\n    returns (bytes32, bytes32, bytes32)\n  {\n    return (users[msg.sender].firstName, users[msg.sender].lastName, users[msg.sender].email);\n  }\n\n  function signup(bytes32 firstName, bytes32 lastName, bytes32 email)\n    external\n    payable\n    onlyValidFirstName(firstName)\n    onlyValidLastName(lastName)\n    onlyValidEmail(email)\n    returns (bytes32, bytes32, bytes32)\n  {\n    // Check if user exists.\n    // If yes, return user.\n    // If no, check if user details were sent.\n    // If yes, create and return user.\n\n    if (users[msg.sender].firstName == 0x0) users[msg.sender].firstName = firstName;\n    if (users[msg.sender].lastName == 0x0) users[msg.sender].lastName = lastName;\n    if (users[msg.sender].email == 0x0) users[msg.sender].email = email;\n\n    SignedUp(msg.sender, firstName, lastName, email);\n  }\n\n  function update(bytes32 firstName, bytes32 lastName, bytes32 email)\n    external\n    payable\n    onlyValidFirstName(firstName)\n    onlyValidLastName(lastName)\n    onlyValidEmail(email)\n    onlyExistingUser\n    returns (bytes32, bytes32, bytes32)\n  {\n    // Update user.\n\n    if (users[msg.sender].firstName != 0x0) users[msg.sender].firstName = firstName;\n    if (users[msg.sender].lastName != 0x0) users[msg.sender].lastName = lastName;\n    if (users[msg.sender].email != 0x0) users[msg.sender].email = email;\n\n    Updated(msg.sender, firstName, lastName, email);\n  }\n}\n",
  "sourcePath": "/Users/patientplatypus/Documents/truffleTest/contracts/Authentication.sol",
  "compiler": {
    "name": "solc",
    "version": "0.4.19+commit.c4cbbb05.Emscripten.clang"
  },
  "schemaVersion": "2.0.0",
  "updatedAt": "2018-03-13T22:39:25.659Z"
}