{
  "contractName": "Pinkies",
  "abi": [
    {
      "constant": true,
      "inputs": [
        {
          "name": "",
          "type": "uint256"
        }
      ],
      "name": "pinkyList",
      "outputs": [
        {
          "name": "",
          "type": "bytes32"
        }
      ],
      "payable": false,
      "stateMutability": "view",
      "type": "function"
    },
    {
      "constant": true,
      "inputs": [
        {
          "name": "",
          "type": "bytes32"
        }
      ],
      "name": "votesReceived",
      "outputs": [
        {
          "name": "",
          "type": "uint256"
        }
      ],
      "payable": false,
      "stateMutability": "view",
      "type": "function"
    },
    {
      "constant": true,
      "inputs": [],
      "name": "tokenPrice",
      "outputs": [
        {
          "name": "",
          "type": "uint256"
        }
      ],
      "payable": false,
      "stateMutability": "view",
      "type": "function"
    },
    {
      "constant": true,
      "inputs": [
        {
          "name": "",
          "type": "address"
        }
      ],
      "name": "pinkyInfo",
      "outputs": [
        {
          "name": "pinkyAddress",
          "type": "address"
        },
        {
          "name": "picBytes",
          "type": "bytes32"
        },
        {
          "name": "tokensBought",
          "type": "uint256"
        }
      ],
      "payable": false,
      "stateMutability": "view",
      "type": "function"
    },
    {
      "constant": false,
      "inputs": [
        {
          "name": "pricePerToken",
          "type": "uint256"
        }
      ],
      "name": "pricePinky",
      "outputs": [],
      "payable": false,
      "stateMutability": "nonpayable",
      "type": "function"
    },
    {
      "constant": false,
      "inputs": [],
      "name": "getPricePinky",
      "outputs": [
        {
          "name": "price",
          "type": "uint256"
        }
      ],
      "payable": false,
      "stateMutability": "nonpayable",
      "type": "function"
    },
    {
      "constant": false,
      "inputs": [
        {
          "name": "pinkyHash",
          "type": "string"
        }
      ],
      "name": "addPinky",
      "outputs": [
        {
          "name": "",
          "type": "string"
        }
      ],
      "payable": false,
      "stateMutability": "nonpayable",
      "type": "function"
    },
    {
      "constant": true,
      "inputs": [],
      "name": "returnPinkies",
      "outputs": [
        {
          "name": "",
          "type": "string"
        }
      ],
      "payable": false,
      "stateMutability": "view",
      "type": "function"
    },
    {
      "constant": false,
      "inputs": [],
      "name": "buy",
      "outputs": [
        {
          "name": "",
          "type": "uint256"
        }
      ],
      "payable": true,
      "stateMutability": "payable",
      "type": "function"
    }
  ],
  "bytecode": "0x6060604052341561000f57600080fd5b6108398061001e6000396000f300606060405260043610610099576000357c0100000000000000000000000000000000000000000000000000000000900463ffffffff16806304fedf9e1461009e57806318425c29146100dd578063530435fe146101b3578063598be311146101dc5780637021939f1461026a5780637ff9b596146102a55780639aba45f8146102ce578063a6f2ae3a146102f1578063f654f7a31461030f575b600080fd5b34156100a957600080fd5b6100bf600480803590602001909190505061039e565b60405180826000191660001916815260200191505060405180910390f35b34156100e857600080fd5b610138600480803590602001908201803590602001908080601f016020809104026020016040519081016040528093929190818152602001838380828437820191505050505050919050506103c2565b6040518080602001828103825283818151815260200191508051906020019080838360005b8381101561017857808201518184015260208101905061015d565b50505050905090810190601f1680156101a55780820380516001836020036101000a031916815260200191505b509250505060405180910390f35b34156101be57600080fd5b6101c661044d565b6040518082815260200191505060405180910390f35b34156101e757600080fd5b6101ef610457565b6040518080602001828103825283818151815260200191508051906020019080838360005b8381101561022f578082015181840152602081019050610214565b50505050905090810190601f16801561025c5780820380516001836020036101000a031916815260200191505b509250505060405180910390f35b341561027557600080fd5b61028f600480803560001916906020019091905050610557565b6040518082815260200191505060405180910390f35b34156102b057600080fd5b6102b861056f565b6040518082815260200191505060405180910390f35b34156102d957600080fd5b6102ef6004808035906020019091905050610575565b005b6102f961057f565b6040518082815260200191505060405180910390f35b341561031a57600080fd5b610346600480803573ffffffffffffffffffffffffffffffffffffffff1690602001909190505061066a565b604051808473ffffffffffffffffffffffffffffffffffffffff1673ffffffffffffffffffffffffffffffffffffffff1681526020018360001916600019168152602001828152602001935050505060405180910390f35b6002818154811015156103ad57fe5b90600052602060002090016000915090505481565b6103ca6106b4565b6000803373ffffffffffffffffffffffffffffffffffffffff1673ffffffffffffffffffffffffffffffffffffffff168152602001908152602001600020600001805480600101828161041d91906106c8565b9160005260206000209001600084909190915090805190602001906104439291906106f4565b5050819050919050565b6000600454905090565b61045f6106b4565b6000803373ffffffffffffffffffffffffffffffffffffffff1673ffffffffffffffffffffffffffffffffffffffff16815260200190815260200160002060000160008154811015156104ae57fe5b90600052602060002090018054600181600116156101000203166002900480601f01602080910402602001604051908101604052809291908181526020018280546001816001161561010002031660029004801561054d5780601f106105225761010080835404028352916020019161054d565b820191906000526020600020905b81548152906001019060200180831161053057829003601f168201915b5050505050905090565b60036020528060005260406000206000915090505481565b60045481565b8060048190555050565b6000806004543481151561058f57fe5b04905033600160003373ffffffffffffffffffffffffffffffffffffffff1673ffffffffffffffffffffffffffffffffffffffff16815260200190815260200160002060000160006101000a81548173ffffffffffffffffffffffffffffffffffffffff021916908373ffffffffffffffffffffffffffffffffffffffff16021790555080600160003373ffffffffffffffffffffffffffffffffffffffff1673ffffffffffffffffffffffffffffffffffffffff168152602001908152602001600020600201600082825401925050819055508091505090565b60016020528060005260406000206000915090508060000160009054906101000a900473ffffffffffffffffffffffffffffffffffffffff16908060010154908060020154905083565b602060405190810160405280600081525090565b8154818355818115116106ef578183600052602060002091820191016106ee9190610774565b5b505050565b828054600181600116156101000203166002900490600052602060002090601f016020900481019282601f1061073557805160ff1916838001178555610763565b82800160010185558215610763579182015b82811115610762578251825591602001919060010190610747565b5b50905061077091906107a0565b5090565b61079d91905b80821115610799576000818161079091906107c5565b5060010161077a565b5090565b90565b6107c291905b808211156107be5760008160009055506001016107a6565b5090565b90565b50805460018160011615610100020316600290046000825580601f106107eb575061080a565b601f01602090049060005260206000209081019061080991906107a0565b5b505600a165627a7a72305820dd5c9f0f0d6de649872de9f7e00daaf86916d8ff602093d7e4ab6c6a992b3dff0029",
  "source": "pragma solidity ^0.4.19; //We have to specify what version of the compiler this code will use\n\ncontract Pinkies {\n\n  // We use the struct datatype to store the voter information.\n\n  struct pinkyHolder {\n    string[] pinkyList;\n    string[] personList1;\n    string[] personList2;\n  }\n  mapping(address => pinkyHolder) pinkyHolders;\n\n  struct pinky {\n    address pinkyAddress; // The address of the voter\n    bytes32 picBytes;\n    uint tokensBought;\n  }\n\n  mapping (address => pinky) public pinkyInfo;\n\n\n  bytes32[] public pinkyList;\n\n  mapping (bytes32 => uint) public votesReceived;\n\n  uint public tokenPrice; // Price per token\n\n  function pricePinky(uint pricePerToken) public {\n    tokenPrice = pricePerToken;\n  }\n\n  function getPricePinky() public returns (uint price) {\n    return tokenPrice;\n  }\n\n  function addPinky(string pinkyHash) public returns(string){\n    pinkyHolders[msg.sender].pinkyList.push(pinkyHash);\n    return pinkyHash;\n  }\n\n  function returnPinkies() constant returns(string) {\n    return pinkyHolders[msg.sender].pinkyList[0];\n  }\n\n\n  /* function appendString(string appendMe) returns(uint length) {\n     return myStructs[msg.sender].structArray.push(appendMe);\n   }\n\n   function getCount() constant returns(uint length) {\n     return myStructs[msg.sender].structArray.length;\n   }\n\n   function getStringAtIndex(uint index) constant returns(string value) {\n     return myStructs[msg.sender].structArray[index];\n   } */\n\n  function buy() payable public returns (uint) {\n    uint tokensToBuy = msg.value / tokenPrice;\n    pinkyInfo[msg.sender].pinkyAddress = msg.sender;\n    pinkyInfo[msg.sender].tokensBought += tokensToBuy;\n    return tokensToBuy;\n  }\n}\n",
  "sourcePath": "/Users/chrishughes/Projects/makePromisesGreatAgain-2/contracts/Pinkies.sol",
  "compiler": {
    "name": "solc",
    "version": "0.4.19+commit.c4cbbb05.Emscripten.clang"
  },
  "schemaVersion": "2.0.0",
  "updatedAt": "2018-03-14T15:42:30.406Z"
}