{
  "contractName": "Pinkies",
  "abi": [
    {
      "constant": true,
      "inputs": [
        {
          "name": "",
          "type": "uint256"
        }
      ],
      "name": "pinkyList",
      "outputs": [
        {
          "name": "",
          "type": "bytes32"
        }
      ],
      "payable": false,
      "stateMutability": "view",
      "type": "function"
    },
    {
      "constant": true,
      "inputs": [
        {
          "name": "",
          "type": "bytes32"
        }
      ],
      "name": "votesReceived",
      "outputs": [
        {
          "name": "",
          "type": "uint256"
        }
      ],
      "payable": false,
      "stateMutability": "view",
      "type": "function"
    },
    {
      "constant": true,
      "inputs": [],
      "name": "tokenPrice",
      "outputs": [
        {
          "name": "",
          "type": "uint256"
        }
      ],
      "payable": false,
      "stateMutability": "view",
      "type": "function"
    },
    {
      "constant": true,
      "inputs": [
        {
          "name": "",
          "type": "address"
        }
      ],
      "name": "pinkyInfo",
      "outputs": [
        {
          "name": "pinkyAddress",
          "type": "address"
        },
        {
          "name": "picBytes",
          "type": "bytes32"
        },
        {
          "name": "tokensBought",
          "type": "uint256"
        }
      ],
      "payable": false,
      "stateMutability": "view",
      "type": "function"
    },
    {
      "constant": false,
      "inputs": [
        {
          "name": "pricePerToken",
          "type": "uint256"
        }
      ],
      "name": "pricePinky",
      "outputs": [],
      "payable": false,
      "stateMutability": "nonpayable",
      "type": "function"
    },
    {
      "constant": false,
      "inputs": [],
      "name": "getPricePinky",
      "outputs": [
        {
          "name": "price",
          "type": "uint256"
        }
      ],
      "payable": false,
      "stateMutability": "nonpayable",
      "type": "function"
    },
    {
      "constant": false,
      "inputs": [
        {
          "name": "pinkyHash",
          "type": "string"
        }
      ],
      "name": "addPinky",
      "outputs": [
        {
          "name": "length",
          "type": "uint256"
        }
      ],
      "payable": false,
      "stateMutability": "nonpayable",
      "type": "function"
    },
    {
      "constant": true,
      "inputs": [],
      "name": "returnPinkies",
      "outputs": [
        {
          "name": "length",
          "type": "uint256"
        }
      ],
      "payable": false,
      "stateMutability": "view",
      "type": "function"
    },
    {
      "constant": false,
      "inputs": [],
      "name": "buy",
      "outputs": [
        {
          "name": "",
          "type": "uint256"
        }
      ],
      "payable": true,
      "stateMutability": "payable",
      "type": "function"
    }
  ],
  "bytecode": "0x6060604052341561000f57600080fd5b61069f8061001e6000396000f300606060405260043610610099576000357c0100000000000000000000000000000000000000000000000000000000900463ffffffff16806304fedf9e1461009e57806318425c29146100dd578063530435fe1461014e578063598be311146101775780637021939f146101a05780637ff9b596146101db5780639aba45f814610204578063a6f2ae3a14610227578063f654f7a314610245575b600080fd5b34156100a957600080fd5b6100bf60048080359060200190919050506102d4565b60405180826000191660001916815260200191505060405180910390f35b34156100e857600080fd5b610138600480803590602001908201803590602001908080601f016020809104026020016040519081016040528093929190818152602001838380828437820191505050505050919050506102f8565b6040518082815260200191505060405180910390f35b341561015957600080fd5b61016161037b565b6040518082815260200191505060405180910390f35b341561018257600080fd5b61018a610385565b6040518082815260200191505060405180910390f35b34156101ab57600080fd5b6101c56004808035600019169060200190919050506103d1565b6040518082815260200191505060405180910390f35b34156101e657600080fd5b6101ee6103e9565b6040518082815260200191505060405180910390f35b341561020f57600080fd5b61022560048080359060200190919050506103ef565b005b61022f6103f9565b6040518082815260200191505060405180910390f35b341561025057600080fd5b61027c600480803573ffffffffffffffffffffffffffffffffffffffff169060200190919050506104e4565b604051808473ffffffffffffffffffffffffffffffffffffffff1673ffffffffffffffffffffffffffffffffffffffff1681526020018360001916600019168152602001828152602001935050505060405180910390f35b6002818154811015156102e357fe5b90600052602060002090016000915090505481565b60008060003373ffffffffffffffffffffffffffffffffffffffff1673ffffffffffffffffffffffffffffffffffffffff168152602001908152602001600020600001805480600101828161034d919061052e565b91600052602060002090016000849091909150908051906020019061037392919061055a565b509050919050565b6000600454905090565b60008060003373ffffffffffffffffffffffffffffffffffffffff1673ffffffffffffffffffffffffffffffffffffffff16815260200190815260200160002060000180549050905090565b60036020528060005260406000206000915090505481565b60045481565b8060048190555050565b6000806004543481151561040957fe5b04905033600160003373ffffffffffffffffffffffffffffffffffffffff1673ffffffffffffffffffffffffffffffffffffffff16815260200190815260200160002060000160006101000a81548173ffffffffffffffffffffffffffffffffffffffff021916908373ffffffffffffffffffffffffffffffffffffffff16021790555080600160003373ffffffffffffffffffffffffffffffffffffffff1673ffffffffffffffffffffffffffffffffffffffff168152602001908152602001600020600201600082825401925050819055508091505090565b60016020528060005260406000206000915090508060000160009054906101000a900473ffffffffffffffffffffffffffffffffffffffff16908060010154908060020154905083565b8154818355818115116105555781836000526020600020918201910161055491906105da565b5b505050565b828054600181600116156101000203166002900490600052602060002090601f016020900481019282601f1061059b57805160ff19168380011785556105c9565b828001600101855582156105c9579182015b828111156105c85782518255916020019190600101906105ad565b5b5090506105d69190610606565b5090565b61060391905b808211156105ff57600081816105f6919061062b565b506001016105e0565b5090565b90565b61062891905b8082111561062457600081600090555060010161060c565b5090565b90565b50805460018160011615610100020316600290046000825580601f106106515750610670565b601f01602090049060005260206000209081019061066f9190610606565b5b505600a165627a7a72305820581cc19629ec45c69e84e5ebb0740db5ebfed1bbd5a38698683a29bef0d369110029",
  "source": "pragma solidity ^0.4.19; //We have to specify what version of the compiler this code will use\n\ncontract Pinkies {\n\n  // We use the struct datatype to store the voter information.\n\n  struct pinkyHolder {\n    string[] pinkyList;\n  }\n  mapping(address => pinkyHolder) pinkyHolders;\n\n  struct pinky {\n    address pinkyAddress; // The address of the voter\n    bytes32 picBytes;\n    uint tokensBought;\n  }\n\n  mapping (address => pinky) public pinkyInfo;\n\n\n  bytes32[] public pinkyList;\n\n  mapping (bytes32 => uint) public votesReceived;\n\n  uint public tokenPrice; // Price per token\n\n  function pricePinky(uint pricePerToken) public {\n    tokenPrice = pricePerToken;\n  }\n\n  function getPricePinky() public returns (uint price) {\n    return tokenPrice;\n  }\n\n  function addPinky(string pinkyHash) public returns(uint length){\n    return pinkyHolders[msg.sender].pinkyList.push(pinkyHash);\n  }\n\n  function returnPinkies() constant returns(uint length) {\n    return pinkyHolders[msg.sender].pinkyList.length;\n  }\n\n\n  /* function appendString(string appendMe) returns(uint length) {\n     return myStructs[msg.sender].structArray.push(appendMe);\n   }\n\n   function getCount() constant returns(uint length) {\n     return myStructs[msg.sender].structArray.length;\n   }\n\n   function getStringAtIndex(uint index) constant returns(string value) {\n     return myStructs[msg.sender].structArray[index];\n   } */\n\n  function buy() payable public returns (uint) {\n    uint tokensToBuy = msg.value / tokenPrice;\n    pinkyInfo[msg.sender].pinkyAddress = msg.sender;\n    pinkyInfo[msg.sender].tokensBought += tokensToBuy;\n    return tokensToBuy;\n  }\n}\n",
  "sourcePath": "/Users/chrishughes/Projects/makePromisesGreatAgain-2/contracts/Pinkies.sol",
  "compiler": {
    "name": "solc",
    "version": "0.4.19+commit.c4cbbb05.Emscripten.clang"
  },
  "schemaVersion": "2.0.0",
  "updatedAt": "2018-03-14T12:33:41.278Z"
}