{
  "contractName": "Pinkies",
  "abi": [
    {
      "constant": true,
      "inputs": [
        {
          "name": "",
          "type": "uint256"
        }
      ],
      "name": "pinkyList",
      "outputs": [
        {
          "name": "",
          "type": "bytes32"
        }
      ],
      "payable": false,
      "stateMutability": "view",
      "type": "function"
    },
    {
      "constant": true,
      "inputs": [
        {
          "name": "",
          "type": "bytes32"
        }
      ],
      "name": "votesReceived",
      "outputs": [
        {
          "name": "",
          "type": "uint256"
        }
      ],
      "payable": false,
      "stateMutability": "view",
      "type": "function"
    },
    {
      "constant": true,
      "inputs": [],
      "name": "tokenPrice",
      "outputs": [
        {
          "name": "",
          "type": "uint256"
        }
      ],
      "payable": false,
      "stateMutability": "view",
      "type": "function"
    },
    {
      "constant": true,
      "inputs": [
        {
          "name": "",
          "type": "address"
        }
      ],
      "name": "pinkyInfo",
      "outputs": [
        {
          "name": "pinkyAddress",
          "type": "address"
        },
        {
          "name": "picBytes",
          "type": "bytes32"
        },
        {
          "name": "tokensBought",
          "type": "uint256"
        }
      ],
      "payable": false,
      "stateMutability": "view",
      "type": "function"
    },
    {
      "constant": false,
      "inputs": [
        {
          "name": "pricePerToken",
          "type": "uint256"
        }
      ],
      "name": "pricePinky",
      "outputs": [],
      "payable": false,
      "stateMutability": "nonpayable",
      "type": "function"
    },
    {
      "constant": false,
      "inputs": [
        {
          "name": "pinkyHash",
          "type": "string"
        }
      ],
      "name": "addPinky",
      "outputs": [
        {
          "name": "length",
          "type": "uint256"
        }
      ],
      "payable": false,
      "stateMutability": "nonpayable",
      "type": "function"
    },
    {
      "constant": true,
      "inputs": [],
      "name": "returnPinkies",
      "outputs": [
        {
          "name": "length",
          "type": "uint256"
        }
      ],
      "payable": false,
      "stateMutability": "view",
      "type": "function"
    },
    {
      "constant": false,
      "inputs": [],
      "name": "buy",
      "outputs": [
        {
          "name": "",
          "type": "uint256"
        }
      ],
      "payable": true,
      "stateMutability": "payable",
      "type": "function"
    }
  ],
  "bytecode": "0x6060604052341561000f57600080fd5b6106618061001e6000396000f30060606040526004361061008e576000357c0100000000000000000000000000000000000000000000000000000000900463ffffffff16806304fedf9e1461009357806318425c29146100d2578063598be311146101435780637021939f1461016c5780637ff9b596146101a75780639aba45f8146101d0578063a6f2ae3a146101f3578063f654f7a314610211575b600080fd5b341561009e57600080fd5b6100b460048080359060200190919050506102a0565b60405180826000191660001916815260200191505060405180910390f35b34156100dd57600080fd5b61012d600480803590602001908201803590602001908080601f016020809104026020016040519081016040528093929190818152602001838380828437820191505050505050919050506102c4565b6040518082815260200191505060405180910390f35b341561014e57600080fd5b610156610347565b6040518082815260200191505060405180910390f35b341561017757600080fd5b610191600480803560001916906020019091905050610393565b6040518082815260200191505060405180910390f35b34156101b257600080fd5b6101ba6103ab565b6040518082815260200191505060405180910390f35b34156101db57600080fd5b6101f160048080359060200190919050506103b1565b005b6101fb6103bb565b6040518082815260200191505060405180910390f35b341561021c57600080fd5b610248600480803573ffffffffffffffffffffffffffffffffffffffff169060200190919050506104a6565b604051808473ffffffffffffffffffffffffffffffffffffffff1673ffffffffffffffffffffffffffffffffffffffff1681526020018360001916600019168152602001828152602001935050505060405180910390f35b6002818154811015156102af57fe5b90600052602060002090016000915090505481565b60008060003373ffffffffffffffffffffffffffffffffffffffff1673ffffffffffffffffffffffffffffffffffffffff168152602001908152602001600020600001805480600101828161031991906104f0565b91600052602060002090016000849091909150908051906020019061033f92919061051c565b509050919050565b60008060003373ffffffffffffffffffffffffffffffffffffffff1673ffffffffffffffffffffffffffffffffffffffff16815260200190815260200160002060000180549050905090565b60036020528060005260406000206000915090505481565b60045481565b8060048190555050565b600080600454348115156103cb57fe5b04905033600160003373ffffffffffffffffffffffffffffffffffffffff1673ffffffffffffffffffffffffffffffffffffffff16815260200190815260200160002060000160006101000a81548173ffffffffffffffffffffffffffffffffffffffff021916908373ffffffffffffffffffffffffffffffffffffffff16021790555080600160003373ffffffffffffffffffffffffffffffffffffffff1673ffffffffffffffffffffffffffffffffffffffff168152602001908152602001600020600201600082825401925050819055508091505090565b60016020528060005260406000206000915090508060000160009054906101000a900473ffffffffffffffffffffffffffffffffffffffff16908060010154908060020154905083565b81548183558181151161051757818360005260206000209182019101610516919061059c565b5b505050565b828054600181600116156101000203166002900490600052602060002090601f016020900481019282601f1061055d57805160ff191683800117855561058b565b8280016001018555821561058b579182015b8281111561058a57825182559160200191906001019061056f565b5b50905061059891906105c8565b5090565b6105c591905b808211156105c157600081816105b891906105ed565b506001016105a2565b5090565b90565b6105ea91905b808211156105e65760008160009055506001016105ce565b5090565b90565b50805460018160011615610100020316600290046000825580601f106106135750610632565b601f01602090049060005260206000209081019061063191906105c8565b5b505600a165627a7a7230582028d261cee2b87f69b713a479c28a5a1f6e2380bfcc17ab78d7f9911a33f0011f0029",
  "source": "pragma solidity ^0.4.19; //We have to specify what version of the compiler this code will use\n\ncontract Pinkies {\n\n  // We use the struct datatype to store the voter information.\n\n  struct pinkyHolder {\n    string[] pinkyList;\n  }\n  mapping(address => pinkyHolder) pinkyHolders;\n\n  struct pinky {\n    address pinkyAddress; // The address of the voter\n    bytes32 picBytes;\n    uint tokensBought;\n  }\n  mapping (address => pinky) public pinkyInfo;\n\n\n  bytes32[] public pinkyList;\n\n  mapping (bytes32 => uint) public votesReceived;\n\n  uint public tokenPrice; // Price per token\n\n  function pricePinky(uint pricePerToken) public {\n    tokenPrice = pricePerToken;\n  }\n\n  function addPinky(string pinkyHash) public returns(uint length){\n    return pinkyHolders[msg.sender].pinkyList.push(pinkyHash);\n  }\n\n  function returnPinkies() constant returns(uint length) {\n    return pinkyHolders[msg.sender].pinkyList.length;\n  }\n\n  /* function appendString(string appendMe) returns(uint length) {\n     return myStructs[msg.sender].structArray.push(appendMe);\n   }\n\n   function getCount() constant returns(uint length) {\n     return myStructs[msg.sender].structArray.length;\n   }\n\n   function getStringAtIndex(uint index) constant returns(string value) {\n     return myStructs[msg.sender].structArray[index];\n   } */\n\n  function buy() payable public returns (uint) {\n    uint tokensToBuy = msg.value / tokenPrice;\n    pinkyInfo[msg.sender].pinkyAddress = msg.sender;\n    pinkyInfo[msg.sender].tokensBought += tokensToBuy;\n    return tokensToBuy;\n  }\n}\n",
  "sourcePath": "/Users/patientplatypus/Documents/truffleNode/contracts/Pinkies.sol",
  "compiler": {
    "name": "solc",
    "version": "0.4.19+commit.c4cbbb05.Emscripten.clang"
  },
  "schemaVersion": "2.0.0",
  "updatedAt": "2018-03-14T03:42:50.814Z"
}